:020000040800F2
:1000000000A0002095010008000000000000000092
:1000100000000000000000000000000000000000E0
:1000200000000000000000000000000000000000D0
:1000300000000000000000000000000000000000C0
:1000400000000000000000000000000000000000B0
:1000500000000000000000000000000000000000A0
:100060000000000000000000000000000000000090
:100070000000000000000000000000000000000080
:100080000000000000000000000000000000000070
:100090000000000000000000000000000000000060
:1000A0000000000000000000000000000000000050
:1000B0000000000000000000000000000000000040
:1000C0000000000000000000000000000000000030
:1000D0000000000000000000000000000000000020
:1000E0000000000000000000000000000000000010
:1000F0000000000000000000000000000000000000
:1001000000000000000000000000000000000000EF
:1001100000000000000000000000000000000000DF
:1001200000000000000000000000000000000000CF
:1001300000000000000000000000000000000000BF
:1001400000000000000000000000000000000000AF
:10015000000000000000000000000000000000009F
:10016000000000000000000000000000000000008F
:10017000000000000000000000000000000000007F
:10018000000000000000000000000000000000006F
:100190000000000080B56F4686B0FFE7002007F83A
:1001A000150C17F8150C00F01CFC07F8010C17F8DB
:1001B000010C8DF80000FFE701A801F001F9FFE74D
:1001C00001208DF809009DF80A008DF81600BDF891
:1001D0000800ADF814000198049004A801F05AF941
:1001E000FFE7FFE70D20012100F071FEFFE7684601
:1001F0004FF47A7100F048FCFFE70D20012100F078
:10020000CEFEFFE768464FF47A7100F03DFCFFE751
:10021000E8E7B0B502AFD0B013468C4686462B90C7
:100220002C912D922A93CDF8A4C0CDF8A0E0FFE741
:100230002B982E902C982D992F9030912E983190AC
:10024000802808D303E0012007F87B0C09E0002098
:1002500007F87B0C05E02F98309900F0CCFA279036
:1002600005E017F87B0C10F0010F05D110E027987E
:1002700010F0010FE7D0EAE731982F99309A002368
:100280002690084611461A4600F0DFFA259004E051
:100290003198B0F5006F0ED309E0269825990870C3
:1002A0000122329252E1012007F87A0C09E0002085
:1002B00007F87A0C05E02F98309900F0E4FA2490C2
:1002C00005E017F87A0C10F0010F04D111E0249822
:1002D0000128E8D8EBE73198C0F384102F99309AC1
:1002E00000232390084611461A4600F0AEFA2290E9
:1002F00004E03198B0F5803F21D31CE0239840F012
:10030000C001229A1170319901F03F012F98309B62
:1003100001222191194600F098FA2090FFE72198D8
:1003200040F08001209A1170022132910EE10120EB
:1003300007F8790C09E0002007F8790C05E02F9800
:10034000309900F0A0FA1F9005E017F8790C10F032
:10035000010F04D111E01F980228E8D8EBE731988B
:10036000C0F303302F99309A00231E90084611469F
:100370001A4600F06AFA1D9005E02F98309900F0B7
:1003800082FA1C9029E01E9840F0E0011D9A11703D
:100390003199C1F385112F98309B01221B91194689
:1003A00000F053FA1A90FFE71B9840F080011A9A68
:1003B0001170319901F03F012F98309B0222199161
:1003C000194600F042FA1890FFE7199840F08001B2
:1003D000189A117003213291B8E01C9804280ED3AA
:1003E000FFE73198C0F382402F99309A002317908D
:1003F000084611461A4600F028FA16900CE042F220
:100400001440C0F6000001684268319815911492BA
:1004100000F0CAF913903AE0179840F0F001169AEC
:1004200011703199C1F305312F98309B012212913F
:10043000194600F00AFA1190FFE7129840F0800187
:10044000119A11703199C1F385112F98309B0222B6
:100450001091194600F0F9F90F90FFE7109840F05D
:1004600080010F9A1170319901F03F012F98309B54
:1004700003220E91194600F0E8F90D90FFE70E985F
:1004800040F080010D9A1170042132915EE01398C2
:1004900000F075F84390FFE72F98309900F0F3F9DA
:1004A0004490FFE743A8409031A8419044A842906F
:1004B000409845904198469042984790459942F21D
:1004C0004312C0F6000248A800F07EF84898499907
:1004D0000C900B91FFE7469942F2DB02C0F6000256
:1004E0004AA800F08DF84A984B990A900991FFE7C5
:1004F000479942F24312C0F600024CA800F064F89B
:100500004C984D9908900791FFE70C983A900B99F9
:100510003B910A9A3C92099B3D93DDF820C0CDF8AF
:10052000F8C0DDF81CE0CDF8FCE06C460325256042
:1005300034A83AAB1599149A00F0EFF8FFE742F2AD
:100540000841C0F6000134A801F0A1FA2F983099B3
:1005500000F06CF90690FFE73299069800F031F947
:1005600005900491FFE705984E9004994F914E989D
:1005700003900291FFE70398029950B0B0BD85B097
:10058000014601900091FFE70198039004907F28B5
:1005900003D8FFE70120029013E004980021B1EB9B
:1005A000D02F03D1FFE7022002900AE0BDF812002D
:1005B000002803D1FFE70320029002E0042002900C
:1005C000FFE7029805B070478BB013468C46059143
:1005D000069204930390CDF808C0FFE705980790B2
:1005E0000698089009900190FFE707980A900090FC
:1005F000FFE7009803990860019A4A600BB07047C2
:100600008BB013468C460591069204930390CDF867
:1006100008C0FFE705980790069808900990019098
:10062000FFE707980A900090FFE700980399086099
:10063000019A4A600BB0704780B56F4690B00A4689
:10064000034609900A9108920793FFE709980C90D6
:100650000A980D900C997A1F134604320690059162
:10066000049203931DE005980299019A00F0E8FABC
:1006700007F8010C17F8010C8DF82C00FFE79DF826
:100680002C0010B080BD0020009901F8010B0391EF
:1006900007E0791F04220698FFF7BBFD0290019145
:1006A000E1E70398049988420090ECD1F1E72DE945
:1006B000F04103AF9AB00A460346039004A891E8BC
:1006C000705180E8705102920193FFE703980B90FC
:1006D00004A80CA90A4690E8785082E878500B9854
:1006E000129013A8024691E8785082E8785042F2BE
:1006F0003821C0F6000112AA00901046009A01F0BD
:10070000FEF907F80D0C17F80D0C8DF82800FFE71F
:100710009DF828001AB0BDE8F081B0B58EB0DDF8C4
:1007200048C09E4614460D46049105920693CDF8A6
:100730001CC0CDF80CE0029401900095FFE70498EE
:10074000059908900991069807990A900B910898C5
:10075000099900220D920C920A9A0B9BDDF804C0B5
:10076000CCF80000CCF804100C980D99CCF80C10C3
:10077000CCF80800CCF81020CCF814300EB0B0BD86
:1007800088B00A4603460390049102920193FFE762
:1007900003980590049806900599084407900090E6
:1007A000FFE7009808B0704785B0014602900191BC
:1007B000FFE70298039004900090FFE7009805B0CF
:1007C00070478CB00A460346049005910392029349
:1007D000FFE70498069005980790069908910990FC
:1007E00008990A910B900A9901900091FFE70098EF
:1007F00001990CB0704780B56F4688B00A46034631
:100800000490059103920293FFE7049805990690DE
:100810000791069800F037F80190FFE70020019952
:10082000002908BF012008B080BD704786B00A4685
:1008300003460290039101920093FFE70298039907
:1008400004900591049806B0704780B56F468AB051
:1008500013468C4686460490059106920393CDF884
:1008600008C0CDF804E0FFE70498059907900891C7
:10087000069809900799089A00F019F80090FFE788
:1008800000980AB080BD89B00A46034603900491DF
:1008900002920193FFE70398049905900691059849
:1008A000079008910091FFE7009809B0704780B564
:1008B0006F468CB013468C46864606900791089288
:1008C0000593CDF810C0CDF80CE0FFE7069809902D
:1008D000079808990A900B910A98FFF7A7FF0290D2
:1008E000FFE709990298FFF74BFF0190FFE7019896
:1008F0000CB080BD80B56F468AB00A4603460490AE
:10090000059103920293FFE70498079005980890D9
:1009100007990968019008460199FFF78DFE07F8CD
:10092000010C17F8010C8DF81800FFE79DF818006E
:100930000AB080BD2DE9F04103AF98B00A460346E6
:10094000029003A891E8705180E8705101920093E1
:10095000FFE702980A9003A80BA90A4690E878508E
:1009600082E878500A98006811AA134691E87051FD
:1009700083E870511146FFF79AFE07F80D0C17F83F
:100980000D0C8DF82400FFE79DF8240018B0BDE899
:10099000F08180B56F468CB013468C468646049035
:1009A000059106920393CDF808C0CDF804E0FFE767
:1009B000049808900598069909900A91089800688B
:1009C000099A00911146009A00F03AF907F8010CD3
:1009D00017F8010C8DF81C00FFE79DF81C000CB007
:1009E00080BD80B56F469AB0014607F8550C03915B
:1009F000FFE717F8550C07F8510C07A800F0BCFDED
:100A0000FFE701208DF821000DA807A91722029009
:100A100000F0DFF902990190084600F0EBFEFFE7D5
:100A200013A800F027FBFFE700208DF850000120FD
:100A30008DF84D009DF850008DF8580013981590D2
:100A400015A800F065FBFFE700F032FC27F8020C68
:100A500037F8020CADF85C00FFE741F63F70ADF8E7
:100A60005C00BDF85C00ADF86000BDF8600000F00F
:100A700035FCFFE717F8510C07F8030C8DF814004C
:100A80009DF814001AB080BD80B56F4696B00A4636
:100A90000346029027F84A1C01920093FFE7029850
:100AA000059037F84A0C27F83E0C00F045FC27F873
:100AB000060C37F8060CADF81C00FFE737F83E0CC3
:100AC000ADF81C00BDF81C00ADF82400BDF82400F2
:100AD00000F048FCFFE7012000F0CFFBFFE700F04B
:100AE0006EFB8DF854009DF854008DF82800FFE748
:100AF00000F07DFB07F8030C17F8030C8DF82C00B1
:100B0000FFE700208DF82C009DF82C008DF83000B8
:100B10009DF8300000F083FBFFE70DA800F0AAFA73
:100B2000FFE701208DF838009DF838008DF840006F
:100B30000D980F900FA800F0EBFAFFE7FFE700F029
:100B40003EFB07F8020C17F8020C8DF8480008E08D
:100B500000F04DFB07F8010C17F8010C8DF84C0064
:100B600007E09DF84800C04310F0010FF0D0FFE708
:100B7000E5E700208DF84C009DF84C008DF8500002
:100B80009DF8500000F04BFBFFE716B080BD85B02C
:100B9000014601900091FFE70198029000BEFFE737
:100BA000FEE72DE9F04F03AFA7B0D7F81CC0D7F888
:100BB00018E01C4615460E468046D7F82890D7F810
:100BC00024A0D7F820B0CDF840C0CDF83CE00E937B
:100BD0000D920C910B900BA805A90494039590E835
:100BE0003C5081E83C50CDF844B0CDF848A0CDF859
:100BF0004C900296CDF80480FFE705A814A90A4698
:100C000090E8785082E878501198129A1A901B92C6
:100C100013981C901FA8024691E8785082E87850FB
:100C20001EA9009008460099FFF741FD07F80D0C3A
:100C300017F80D0C8DF87400FFE700BEFFE7FEE724
:100C400080B58CB013468C4686460390049105927D
:100C50000293CDF804C0CDF800E0FFE703980790B9
:100C6000049805990890099100BE00208DF818009D
:100C70009DF818000CB080BD81B0009001B07047A5
:100C800081B0009001B0704781B0009001B0704712
:100C900081B0009001B0704781B0009001B0704702
:100CA00081B0009001B0704785B00146029001917B
:100CB000FFE702980390006804900090FFE7009817
:100CC00005B0704787B00A4603460290039101922F
:100CD0000093FFE702980590039806900599086035
:100CE000FFE707B0704788B00A46034603900491B7
:100CF00002920193FFE703980590049806900599E6
:100D0000084407900090FFE7009808B0704788B04B
:100D10000A4603460390049102920193FFE7039869
:100D20000590049806900599084407900090FFE705
:100D3000009808B0704780B56F4682B001460190B8
:100D4000009100F082FA0198FFF796FF02B080BD93
:100D500080B56F4682B001460190009100F0EFF936
:100D60000198FFF78DFF02B080BD80B56F4682B05D
:100D700001460190009100F00BFB0198FFF784FF02
:100D800002B080BD80B56F4682B0014601900091EF
:100D900000F04EFD0198FFF77BFF02B080BD80B5EB
:100DA0006F4682B001460190009100F0ADFA0198C3
:100DB000FFF772FF02B080BD80B56F4682B001467A
:100DC0000190009100F084FB0198FFF769FF02B0E9
:100DD00080BD80B56F4690B013468C46864607901E
:100DE000089109920693CDF814C0CDF810E0FFE702
:100DF00007980A9008980B9009980C9000200D9085
:100E0000FFE70D980C99884203D3FFE70A9810B0CA
:100E100080BD0B980D99FFF77AFF0390FFE70398C9
:100E200001780A980D9A02911146FFF75CFF019034
:100E3000FFE70298019908700D9A531C4FF0010CBE
:100E4000934228BF4FF0000CBCF1000F009303D178
:100E5000FFE700980D90D4E742F2BC20C0F60000F6
:100E600000F0DAFD80B56F468CB00A460346059067
:100E7000069104920393FFE705980790069808905F
:100E800000200990FFE709980899884203D3FFE7FB
:100E900007980CB080BD07980999FFF724FF0290CE
:100EA000FFE70020029908700998421C0123824242
:100EB00028BF0023002B019203D1FFE7019809907E
:100EC000E1E742F2D020C0F6000000F0A5FD80B5B9
:100ED0006F468CB00A46034607F8160C07F8151C37
:100EE00005920493FFE717F8160C07F8120C17F891
:100EF000150C07F8110C17F8120C102806D3FFE791
:100F000042F25020C0F6000000F086FD17F8110CE8
:100F10000A9017F8121C0122A1FB02120B0A4FF0D3
:100F2000000CBCEB112F18BF0123002A18BF0122AF
:100F300042EA0302002A039002911ED1FFE70298C1
:100F4000C1B20022002A01911DD1FFE7019800F0F3
:100F50001F01039A02FA01F110F0E00F009118D17D
:100F6000FFE700980B9041F21000C4F201000099D5
:100F7000FFF7A8FEFFE70CB080BD42F27030C0F66C
:100F8000000000F049FD42F28430C0F6000000F09D
:100F900043FD42F29830C0F6000000F03DFD80B500
:100FA0006F468CB00A46034607F8160C07F8151C66
:100FB00005920493FFE717F8160C07F8120C17F8C0
:100FC000150C07F8110C17F8120C102806D3FFE7C0
:100FD00042F26420C0F6000000F01EFD17F8110C6C
:100FE0000A9017F8121C0122A1FB02120B0A4FF003
:100FF000000CBCEB112F18BF0123002A18BF0122DF
:1010000042EA0302002A0390029121D1FFE7102057
:10101000029950FA81F0C2B20346824201931DD177
:10102000FFE7019800F01F01039A02FA01F110F0A6
:10103000E00F009118D1FFE700980B9041F21000EB
:10104000C4F201000099FFF73DFEFFE70CB080BD40
:1010500042F2AC30C0F6000000F0DEFC42F2C030DC
:10106000C0F6000000F0D8FC42F2D430C0F6000018
:1010700000F0D2FCB0B502AF8CB00A90FFE741F2AD
:101080000040C4F20000FFF70FFE0B90FFE70B9843
:10109000C0090990FFE7099800F001010B9AD208F6
:1010A00008910792FFE7079800F001010B9A920858
:1010B00006910592FFE7059800F001010B9A52088E
:1010C00004910392FFE7039800F001010B9A02914B
:1010D0000192FFE7019800F00101089A02F0010374
:1010E000DDF828C08CF80030069B03F0010E8CF868
:1010F00001E0DDF810E00EF001048CF80240029CE3
:1011000004F001058CF803508CF804100CB0B0BD4D
:1011100080B56F4686B0014602798DF808200068D8
:1011200001900091FFE79DF808008DF814000198E8
:10113000049004A8FFF70CFEFFE706B080BD80B561
:101140006F468EB001460A900991FFE70A980C900D
:101150000078C0010890FFE708980C994978C90009
:1011600007900691FFE70798069940EA01020C9B59
:101170009B789B0005920493FFE70598049940EA49
:1011800001020C9BDB785B0003920293FFE703985C
:10119000029940EA01020C9B1B7901920093FFE740
:1011A0000198009940EA01020D9241F20040C4F218
:1011B00000001146FFF786FDFFE70EB080BD80B549
:1011C0006F4684B0FFE741F21040C4F20000FFF721
:1011D0006BFD0390FFE703980190FFE7019800F093
:1011E00001018DF808109DF8080004B080BD80B59D
:1011F0006F4684B0FFE741F21040C4F20000FFF7F1
:1012000053FD0390FFE703980190FFE7019800F07A
:1012100001018DF808109DF8080004B080BD80B56C
:101220006F4684B0014607F8090C17F8090C8DF8D1
:1012300004000091FFE79DF804008DF80C0003A85E
:10124000FFF779FDFFE704B080BD80B56F4686B03B
:10125000014602900191FFE7029804900078009007
:10126000FFE70098059041F21040C4F20000009999
:10127000FFF728FDFFE706B080BD80B56F4686B05A
:10128000014607F8090C0291FFE717F8090C07F867
:10129000050C17F8050C059041F21441C4F2000149
:1012A000019008460199FFF70DFDFFE706B080BDEC
:1012B00080B56F4684B0FFE741F22840C4F20000D9
:1012C000FFF7F2FC0390FFE703980190FFE7019816
:1012D000ADF80800BDF8080004B080BD80B56F46C9
:1012E00084B0014627F80A0C37F80A0CADF8040060
:1012F0000091FFE7BDF80400ADF80C0003A8FFF76C
:101300004EFDFFE704B080BD80B56F4686B0014654
:1013100002900191FFE70298049000880090FFE797
:101320000098059041F22840C4F200000099FFF7B0
:10133000C9FCFFE706B080BD80B56F4684B0FFE70B
:1013400041F22C40C4F20000FFF7AEFC0390FFE72F
:1013500003980190FFE70198ADF80800BDF8080078
:1013600004B080BD80B56F4684B0014627F80A0CF2
:1013700037F80A0CADF804000091FFE7BDF804004F
:10138000ADF80C0003A8FFF7F0FCFFE704B080BD48
:1013900080B56F4686B0014602900191FFE7029842
:1013A000049000880090FFE70098059041F22C40DF
:1013B000C4F200000099FFF785FCFFE706B080BD8E
:1013C0002DE9F04103AF90B00E90FFE741F2140019
:1013D000C4F20200FFF768FC0F90FFE70F980D9032
:1013E000FFE70D9800F001010F9A52080C910B9243
:1013F000FFE70B9800F001010F9A92080A910992F9
:10140000FFE7099800F001010F9A1209089107926D
:10141000FFE7079800F001010F9A920906910592E3
:10142000FFE7059800F001010F9A120A0491039258
:10143000FFE7039800F001010F9A920A02910192CE
:10144000FFE7019800F001010C9A02F00103DDF8BA
:1014500038C08CF800300A9B03F0010E8CF801E0D4
:10146000DDF820E00EF001048CF80240069C04F048
:1014700001058CF80350049D05F001068CF804600A
:10148000029E06F001088CF805808CF8061010B05A
:10149000BDE8F08180B56F4686B0014682798DF84F
:1014A0000A208288ADF80820006801900091FFE7CB
:1014B0009DF80A008DF81600BDF80800ADF814007C
:1014C0000198049004A8FFF777FCFFE706B080BD01
:1014D00080B56F4692B001460E900D91FFE70E98D1
:1014E000109000780C90FFE70C981099497849000B
:1014F0000B900A91FFE70B980A9940EA0102109BB2
:101500009B789B0009920893FFE70998089940EAA5
:101510000102109BDB781B0107920693FFE70798F7
:10152000069940EA0102109B1B799B0105920493E6
:10153000FFE70598049940EA0102109B5B791B02C2
:1015400003920293FFE70398029940EA0102109B7D
:101550009B799B0201920093FFE70198009940EA72
:101560000102119241F21400C4F202001146FFF789
:10157000A9FBFFE712B080BD2DE9F04F03AFAFB07C
:101580002D90FFE741F21C00C4F20200FFF78CFB34
:101590002E90FFE72E982C90FFE72C9800F0010189
:1015A0002E9A52082B912A92FFE72A9800F0010107
:1015B0002E9A920829912892FFE7289800F00101BD
:1015C0002E9AD20827912692FFE7269800F0010173
:1015D0002E9A120925912492FFE7249800F0010128
:1015E0002E9A520923912292FFE7229800F00101DE
:1015F0002E9A920921912092FFE7209800F0010194
:101600002E9AD2091F911E92FFE71E9800F0010149
:101610002E9A120A1D911C92FFE71C9800F00101FE
:101620002E9AD20A1B911A92FFE71A9800F0010134
:101630002E9A920B19911892FFE7189800F0010169
:101640002E9AD20B17911692FFE7169800F001011F
:101650002E9A520C15911492FFE7149800F0010194
:101660002E9A920C13911292FFE7129800F001014A
:101670002E9AD20C11911092FFE7109800F0010100
:101680002E9A120D0F910E92FFE70E9800F00101B5
:101690002E9A520D0D910C92FFE70C9800F001016B
:1016A0002E9A920D0B910A92FFE70A9800F0010121
:1016B0002E9AD20D09910892FFE7089800F00101D7
:1016C0002E9A520E07910692FFE7069800F001014C
:1016D0002E9AD20E05910492FFE7049800F00101C2
:1016E0002E9A120F03910292FFE7029800F0010177
:1016F0002E9A520F01910092FFE7009800F001012D
:101700002B9A02F00103DDF8B4C08CF80030299B5D
:1017100003F0010E8CF801E0DDF89CE00EF001040E
:101720008CF80240259C04F001058CF80350239DA1
:1017300005F001068CF80460219E06F001088CF883
:101740000580DDF87C8008F001098CF80690DDF852
:10175000749009F0010A8CF807A0DDF86CA00AF07B
:10176000010B8CF808B0DDF864B00BF001008CF8C8
:101770000900179800F001008CF80A00159800F095
:1017800001008CF80B00139800F001008CF80C009D
:10179000119800F001008CF80D000F9800F0010086
:1017A0008CF80E000D9800F001008CF80F000B98DB
:1017B00000F001008CF81000099800F001008CF88E
:1017C0001100079800F001008CF81200059800F055
:1017D00001008CF81300039800F001008CF814004D
:1017E000019800F001008CF815008CF816102FB04D
:1017F000BDE8F08F80B56F4692B0014605AA172369
:1018000004901046049A039111461A46FFF7E1FA34
:101810000290FFE70CA805A917220190FFF7D9FA5B
:10182000019900900846FFF7ADFAFFE712B080BDBE
:1018300080B56F46B2B001462E902D91FFE72E98ED
:10184000309000782C90FFE72C9830994978490027
:101850002B902A91FFE72B982A9940EA0102309BAE
:101860009B789B0029922893FFE72998289940EAC2
:101870000102309BDB78DB0027922693FFE7279855
:10188000269940EA0102309B1B791B012592249383
:10189000FFE72598249940EA0102309B5B795B01C0
:1018A00023922293FFE72398229940EA0102309B7A
:1018B0009B799B0121922093FFE72198209940EA90
:1018C0000102309BDB79DB011F921E93FFE71F981B
:1018D0001E9940EA0102309B1B7A1B021D921C9349
:1018E000FFE71D981C9940EA0102309B5B7ADB02FE
:1018F0001B921A93FFE71B981A9940EA0102309B4A
:101900009B7A9B0319921893FFE71998189940EA5C
:101910000102309BDB7ADB0317921693FFE71798DF
:10192000169940EA0102309B1B7B5B0415921493CD
:10193000FFE71598149940EA0102309B5B7B9B04FA
:1019400013921293FFE71398129940EA0102309B19
:101950009B7BDB0411921093FFE71198109940EAEA
:101960000102309BDB7B1B050F920E93FFE70F9864
:101970000E9940EA0102309B1B7C5B050D920C9393
:10198000FFE70D980C9940EA0102309B5B7C9B05B8
:101990000B920A93FFE70B980A9940EA0102309BE9
:1019A0009B7CDB0509920893FFE70998089940EAB8
:1019B0000102309BDB7C5B0607920693FFE70798EA
:1019C000069940EA0102309B1B7DDB0605920493D9
:1019D000FFE70598049940EA0102309B5B7D1B07F5
:1019E00003920293FFE70398029940EA0102309BB9
:1019F0009B7D5B0701920093FFE70198009940EA05
:101A00000102319241F21C00C4F202001146FFF7BC
:101A100059F9FFE732B080BD80B58CB090E80E1068
:101A20000069CDE9071207A942F23C420191012168
:101A3000C0F6000202910021CDE90311CDE9052194
:101A4000CDE9093C0B9001A809A900F020F880B568
:101A50008CB0034601A8CDE900126946089042F215
:101A60004310C0F600000990CDE90A1042F28460EC
:101A70000021C0F60000029002200390CDE904117D
:101A800008A9CDE9061002A8194600F000F870B5C3
:101A900086B000F10804D0E900CE1CCC4069D1E941
:101AA00000568968CDE90040CDE9025604916046B0
:101AB0007146FFF776F880B58CB0CDE90001684635
:101AC00001A9089042F24310C0F600000990CDE948
:101AD0000A1042F274700021C0F600000290022049
:101AE0000390CDE9041108A9CDE9061042F2304176
:101AF00002A8C0F60001FFF7CAFF00F022BB2DE9E3
:101B0000F04F8FB0D2E9003ED2E9026CD2E9044234
:101B1000002720250297039503258DF8105009AD65
:101B20000597079704EBC20913C5002ECDE90C9465
:101B30000E92CDE900E300F0AD800DF1080A0CEB48
:101B4000CC00351D4FEACE041F460AF1140B0AF1F2
:101B50000C084FEA8009B9F1000F00F0BE80002C9C
:101B600000F0D080D7E90012DDE90903DB6898476F
:101B700010F0FF0F40F0C280B0680390307B8DF80A
:101B8000100030690290D6E9070100F00300012837
:101B900013D0032825D0022820D1DDE90B0188428B
:101BA0001FD000F1080141F6FB220B91C0F60002A4
:101BB0004168914215D100680FE00E9A8A4240F2C6
:101BC000A5800D9841F6FB23C0F6000300EBC1028F
:101BD00052689A4205D150F8310001680022012074
:101BE00001E0002000221143C8E90001D6E9050107
:101BF00000F00300012813D0032824D002281FD1AD
:101C0000DDE90B0188421ED000F1080141F6FB22FC
:101C10000B91C0F600024168914214D100680EE0B9
:101C20000E9A8A4272D90D9841F6FB23C0F6000342
:101C300000EBC10252689A4205D150F831000168A8
:101C40000022012001E0002000221143CBE9000125
:101C50003068012807D129680E9A91425CD20D980C
:101C600000EBC10006E0DDE90B0188425AD000F12B
:101C700008010B91011D0068243608370A68514697
:101C80009047A9F124092435083C10F0FF0F3FF4D8
:101C900062AF33E04FEACE060DF1080818464C4516
:101CA0001AD07EB300F10807BCB1D0E90012DDE91B
:101CB0000903DB68984710F0FF0F1FD1D4E9000239
:101CC000414604F10805904710F0FF0FA6F1080601
:101CD00038462C46E3D011E00746DDE9001000EB62
:101CE000C100874218BF002F0CD0D7E90012DDE9F0
:101CF0000903DB68984710F0FF0F03D001200FB0F5
:101D0000BDE8F08F00200FB0BDE8F08F42F24850E0
:101D1000C0F60000FFF79BFE42F23C50C0F6000008
:101D2000FFF795FE42F21C40C0F60000FFF774FE7C
:101D30002DE9F04F85B0DDF83CA09846044631B15E
:101D400020682B2500F0010909EB0A0605E0206850
:101D50000AF101062D254FF0010910F0040F02D100
:101D60004FF0000B15E0AC460021B8F1000F0AD08F
:101D70004546134613F8017B07F0C007802F08BFC4
:101D80000131013DF6D106EB08034FF0010B65462A
:101D90005E1A0E9BE168012916D102922769B742AB
:101DA0002FD910F0080F54D1207AB91B032808BF8F
:101DB000012010F003024FF000007DD0022A7ED0F7
:101DC00000228A4600927FE017461E46B9F1010FB5
:101DD0000ED1D4E90701002204928DF8105001229F
:101DE0000125CB6804A9984710F0FF0F40F06F81E0
:101DF000BBF1000F25D0D4E907014246CB68394634
:101E00001AE01E46B9F1010F0ED1D4E907010022F4
:101E100004928DF8105001220125CB6804A998473F
:101E200010F0FF0F40F05381BBF1000F09D0D4E94F
:101E300007014246CB680299984710F0FF0F40F027
:101E40004581216AE0695246CB683146984705468C
:101E50003DE13020B9F1010F60600ED1D4E90701F6
:101E6000002204928DF8105001220125CB6804A9AC
:101E7000984710F0FF0F40F02A81BBF1000F09D006
:101E8000D4E907014246CB680299984710F0FF0F4A
:101E900040F01C81207AB91B032808BF012010F0F4
:101EA00003024FF0000000F09E80022A00F09F80A5
:101EB0004FF0000889469FE04FF0000A03E04FEA28
:101EC000510A01314908009103906068019580280A
:101ED00003D28DF80C00012539E00021B1EBD02FA1
:101EE0000BD181090622022562F35F1165F39F1071
:101EF0008DF80C108DF80D0029E0B1EB104F11D1C9
:101F0000010B0E22032562F31F1102228DF80C1023
:101F1000810962F39F1062F39F118DF80D108DF807
:101F20000E0014E0F0210222042541EA90418DF8D0
:101F30000C10010B62F39F118DF80D10810962F3F3
:101F40009F1062F39F118DF80E108DF80F004FF067
:101F5000FF3703AE0137574509D2D4E907012A46B6
:101F6000CB683146984710F0FF0FF3D0AEE0B9F1DF
:101F7000010F0ED10022D4E907010492019A8DF8D5
:101F800010200122CB6804A9984710F0FF0F40F001
:101F90009D80BBF1000F09D0D4E907014246CB6810
:101FA0000299984710F0FF0F40F09080D4E90701A4
:101FB000CB68DDE90E12984710F0FF0F40F08680E5
:101FC000009E4FF0FF370DF10C080137B74280F04B
:101FD0008280D4E907012A46CB684146984710F031
:101FE000FF0FF2D072E04FF00009884604E04FEA9C
:101FF000510901314FEA510804906068802803D2EA
:102000008DF81000012539E00021B1EBD02F0BD164
:1020100081090622022562F35F1165F39F108DF896
:1020200010108DF8110029E0B1EB104F11D1010B08
:102030000E22032562F31F1102228DF81010810970
:1020400062F39F1062F39F118DF811108DF812004A
:1020500014E0F0210222042541EA90418DF810108D
:10206000010B62F39F118DF81110810962F39F102B
:1020700062F39F118DF812108DF813004FF0FF37A7
:1020800004AE01374F4509D2D4E907012A46CB688F
:102090003146984710F0FF0FF3D017E0D4E907015D
:1020A0005246CB680E99984710F0FF0F0ED14FF0B3
:1020B000FF3704AE013747450DD2D4E907012A4660
:1020C000CB683146984710F0FF0FF3D00125284622
:1020D00005B0BDE8F08F0025F9E770B5A2B006683D
:1020E00002AD0C4680212846FEF7BCFE00200021F0
:1020F00006F00F0202F137030A2A38BF42F030031C
:102100006A180139B0EB161F82F87F304FEA1612B9
:102110001646EDD101F1800081280FD248422944B2
:1021200042F2847202238031C0F60002CDE9001031
:1021300020460121FFF7FCFD22B070BD8021FFF792
:10214000BAFC2DE9F04F8DB0026842F21077BA4226
:1021500034D341F2597E48F21F5842F286744EF24F
:10216000FF0B00230DF10D094FF0640ACDF2B71EED
:10217000C5F2EB18C0F60004C0F2F55BA2FB0E0539
:1021800009EB030C043B5A454FEA553000FB172579
:102190000246A5FB08674FEA571606FB1A5534F8A6
:1021A000167034F81550ACF8237042F21077ACF882
:1021B0002550E3D803F12707024600E02727642AC9
:1021C00014DB48F21F50023FC5F2EB10A2FB0003E4
:1021D0005B09642003FB102042F28672C0F6000205
:1021E00032F810000DF10D02D05300E01346092B18
:1021F00005DC781E30330DF10D02135409E042F274
:1022000086700DF10D02C0F6000030F81330B81ED4
:1022100013520DF10D02C0F12703104442F23C426B
:10222000CDE900030846C0F6000201210023FFF7B4
:102230007FFD0DB0BDE8F08F2B0800080400000002
:102240000400000093090008F5080008350900089B
:10225000E82300080F000000502300081D000000C4
:102260003D010000F72300080F0000005023000884
:102270001D000000440100000000000000000000FC
:102280006C6962735C7065726970686572616C5CC0
:102290007372635C6C69622E727300000000000050
:1022A000617474656D707420746F2061646420774C
:1022B000697468206F766572666C6F77A02200087B
:1022C0001C000000802200081A000000B20000007C
:1022D000A02200081C000000802200081A00000054
:1022E000BD00000000000000000000000000000031
:1022F000617474656D707420746F206D756C746991
:10230000706C792077697468206F766572666C6F7F
:102310007700000000000000000000000000000046
:10232000617474656D707420746F2073686966746D
:10233000206C6566742077697468206F76657266B4
:102340006C6F77000000000000000000000000003B
:102350006C6962735C7065726970686572616C5CEF
:102360007372635C6770696F5C632E727300000048
:10237000F022000821000000502300081D0000008A
:102380003F010000A02200081C00000050230008AC
:102390001D0000003F010000202300082300000072
:1023A000502300081D0000003F010000F02200083B
:1023B00021000000502300081D000000460100001D
:1023C000A02200081C000000502300081D0000008F
:1023D00046010000202300082300000050230008CD
:1023E0001D000000460100006273206F7574206FAD
:1023F000662072616E67656272206F7574206F6609
:102400002072616E6765000060250008760000009C
:10241000BE0100003826000803000000A0260008C6
:102420002B000000D02600087800000043010000C7
:10243000402400087700000048020000000000006F
:10244000433A5C55736572735C766B6F656E646559
:1024500072732E494E5452414E45545C2E72757320
:102460007475705C746F6F6C636861696E735C6EB9
:10247000696768746C792D7838365F36342D7063EF
:102480002D77696E646F77732D6D7376635C6C69FD
:10249000625C727573746C69625C7372635C727592
:1024A00073745C7372635C6C6962636F72655C7396
:1024B0006C6963652E72730000000000000000006C
:1024C000433A5C55736572735C766B6F656E6465D9
:1024D00072732E494E5452414E45545C2E727573A0
:1024E0007475705C746F6F6C636861696E735C6E39
:1024F000696768746C792D7838365F36342D70636F
:102500002D77696E646F77732D6D7376635C6C697C
:10251000625C727573746C69625C7372635C727511
:1025200073745C7372635C6C6962636F72655C6622
:102530006D742F6D6F642E7273000000C02400084C
:10254000790000007F030000C0240008790000002B
:102550008B030000000000000000000000000000ED
:10256000433A5C55736572735C766B6F656E646538
:1025700072732E494E5452414E45545C2E727573FF
:102580007475705C746F6F6C636861696E735C6E98
:10259000696768746C792D7838365F36342D7063CE
:1025A0002D77696E646F77732D6D7376635C6C69DC
:1025B000625C727573746C69625C7372635C727571
:1025C00073745C7372635C6C6962636F72655C6385
:1025D0006861722E727300000000000000000000AD
:1025E000656E636F64655F757466383A206E656505
:1025F0006420000000000000000000000000000057
:1026000020627974657320746F20656E636F6465F2
:1026100020552B000000000000000000000000001A
:102620002C20627574207468652062756666657218
:102630002068617320000000E025000812000000FF
:1026400000260008130000002026000815000000E6
:10265000696E646578206F7574206F6620626F758F
:102660006E64733A20746865206C656E206973200F
:10267000206275742074686520696E6465782069CD
:10268000732000005026000820000000702600087B
:102690001200000000000000000000000000000028
:1026A00063616C6C656420604F7074696F6E3A3A58
:1026B000756E77726170282960206F6E20612060CE
:1026C0004E6F6E65602076616C75650000000000DD
:1026D000433A5C55736572735C766B6F656E6465C7
:1026E00072732E494E5452414E45545C2E7275738E
:1026F0007475705C746F6F6C636861696E735C6E27
:10270000696768746C792D7838365F36342D70635C
:102710002D77696E646F77732D6D7376635C6C696A
:10272000625C727573746C69625C7372635C7275FF
:1027300073745C7372635C6C6962636F72655C6F07
:102740007074696F6E2E727300000000000000004C
:10275000736C69636520696E646578207374617257
:102760007473206174202062757420656E64732018
:10277000617420005027000816000000662700083A
:102780000D000000307830303031303230333034AA
:102790003035303630373038303931303131313210
:1027A00031333134313531363137313831393230F6
:1027B00032313232323332343235323632373238E5
:1027C00032393330333133323333333433353336D4
:1027D00033373338333934303431343234333434BA
:1027E00034353436343734383439353035313532A0
:1027F0003533353435353536353735383539363086
:102800003631363236333634363536363637363874
:102810003639373037313732373337343735373663
:102820003737373837393830383138323833383449
:10283000383538363837383838393930393139322F
:0E284000393339343935393639373938393981
:0C28500041970181B0B00B840000000033
:0C285C0041970181B0B00B840000000027
:040000050800019559
:00000001FF
